{
  "_format": "hh-sol-artifact-1",
  "contractName": "BKCVerify",
  "sourceName": "contracts/BKCVerify.sol",
  "abi": [
    {
      "inputs": [],
      "stateMutability": "nonpayable",
      "type": "constructor"
    },
    {
      "anonymous": false,
      "inputs": [
        {
          "indexed": true,
          "internalType": "string",
          "name": "documentId",
          "type": "string"
        },
        {
          "indexed": true,
          "internalType": "address",
          "name": "owner",
          "type": "address"
        },
        {
          "indexed": false,
          "internalType": "string",
          "name": "documentHash",
          "type": "string"
        },
        {
          "indexed": false,
          "internalType": "uint256",
          "name": "timestamp",
          "type": "uint256"
        }
      ],
      "name": "DocumentCreated",
      "type": "event"
    },
    {
      "anonymous": false,
      "inputs": [
        {
          "indexed": true,
          "internalType": "string",
          "name": "documentId",
          "type": "string"
        },
        {
          "indexed": true,
          "internalType": "address",
          "name": "signer",
          "type": "address"
        },
        {
          "indexed": false,
          "internalType": "string",
          "name": "signatureHash",
          "type": "string"
        },
        {
          "indexed": false,
          "internalType": "uint256",
          "name": "timestamp",
          "type": "uint256"
        }
      ],
      "name": "DocumentSigned",
      "type": "event"
    },
    {
      "anonymous": false,
      "inputs": [
        {
          "indexed": true,
          "internalType": "string",
          "name": "userId",
          "type": "string"
        },
        {
          "indexed": true,
          "internalType": "address",
          "name": "walletAddress",
          "type": "address"
        },
        {
          "indexed": false,
          "internalType": "string",
          "name": "identityHash",
          "type": "string"
        },
        {
          "indexed": false,
          "internalType": "uint256",
          "name": "timestamp",
          "type": "uint256"
        }
      ],
      "name": "IdentityVerified",
      "type": "event"
    },
    {
      "anonymous": false,
      "inputs": [
        {
          "indexed": true,
          "internalType": "address",
          "name": "previousOwner",
          "type": "address"
        },
        {
          "indexed": true,
          "internalType": "address",
          "name": "newOwner",
          "type": "address"
        }
      ],
      "name": "OwnershipTransferred",
      "type": "event"
    },
    {
      "anonymous": false,
      "inputs": [
        {
          "indexed": true,
          "internalType": "string",
          "name": "userId",
          "type": "string"
        },
        {
          "indexed": true,
          "internalType": "address",
          "name": "walletAddress",
          "type": "address"
        }
      ],
      "name": "UserRegistered",
      "type": "event"
    },
    {
      "anonymous": false,
      "inputs": [
        {
          "indexed": true,
          "internalType": "address",
          "name": "verifier",
          "type": "address"
        },
        {
          "indexed": false,
          "internalType": "bool",
          "name": "authorized",
          "type": "bool"
        }
      ],
      "name": "VerifierAuthorized",
      "type": "event"
    },
    {
      "inputs": [
        {
          "internalType": "address",
          "name": "",
          "type": "address"
        }
      ],
      "name": "authorizedVerifiers",
      "outputs": [
        {
          "internalType": "bool",
          "name": "",
          "type": "bool"
        }
      ],
      "stateMutability": "view",
      "type": "function"
    },
    {
      "inputs": [
        {
          "internalType": "string",
          "name": "documentId",
          "type": "string"
        },
        {
          "internalType": "string",
          "name": "documentHash",
          "type": "string"
        },
        {
          "internalType": "uint256",
          "name": "requiredSignatures",
          "type": "uint256"
        }
      ],
      "name": "createDocument",
      "outputs": [],
      "stateMutability": "nonpayable",
      "type": "function"
    },
    {
      "inputs": [
        {
          "internalType": "string",
          "name": "",
          "type": "string"
        },
        {
          "internalType": "uint256",
          "name": "",
          "type": "uint256"
        }
      ],
      "name": "documentSignatures",
      "outputs": [
        {
          "internalType": "address",
          "name": "signer",
          "type": "address"
        },
        {
          "internalType": "uint256",
          "name": "timestamp",
          "type": "uint256"
        },
        {
          "internalType": "string",
          "name": "signatureHash",
          "type": "string"
        },
        {
          "internalType": "bool",
          "name": "valid",
          "type": "bool"
        }
      ],
      "stateMutability": "view",
      "type": "function"
    },
    {
      "inputs": [
        {
          "internalType": "string",
          "name": "",
          "type": "string"
        }
      ],
      "name": "documents",
      "outputs": [
        {
          "internalType": "string",
          "name": "documentId",
          "type": "string"
        },
        {
          "internalType": "string",
          "name": "documentHash",
          "type": "string"
        },
        {
          "internalType": "uint256",
          "name": "timestamp",
          "type": "uint256"
        },
        {
          "internalType": "address",
          "name": "owner",
          "type": "address"
        },
        {
          "internalType": "bool",
          "name": "signed",
          "type": "bool"
        },
        {
          "internalType": "uint256",
          "name": "signatureCount",
          "type": "uint256"
        },
        {
          "internalType": "uint256",
          "name": "requiredSignatures",
          "type": "uint256"
        }
      ],
      "stateMutability": "view",
      "type": "function"
    },
    {
      "inputs": [],
      "name": "getContractStats",
      "outputs": [
        {
          "internalType": "uint256",
          "name": "totalUsers",
          "type": "uint256"
        },
        {
          "internalType": "uint256",
          "name": "totalDocuments",
          "type": "uint256"
        },
        {
          "internalType": "uint256",
          "name": "totalSignatures",
          "type": "uint256"
        }
      ],
      "stateMutability": "view",
      "type": "function"
    },
    {
      "inputs": [
        {
          "internalType": "string",
          "name": "documentId",
          "type": "string"
        }
      ],
      "name": "getDocument",
      "outputs": [
        {
          "components": [
            {
              "internalType": "string",
              "name": "documentId",
              "type": "string"
            },
            {
              "internalType": "string",
              "name": "documentHash",
              "type": "string"
            },
            {
              "internalType": "uint256",
              "name": "timestamp",
              "type": "uint256"
            },
            {
              "internalType": "address",
              "name": "owner",
              "type": "address"
            },
            {
              "internalType": "bool",
              "name": "signed",
              "type": "bool"
            },
            {
              "internalType": "uint256",
              "name": "signatureCount",
              "type": "uint256"
            },
            {
              "internalType": "uint256",
              "name": "requiredSignatures",
              "type": "uint256"
            }
          ],
          "internalType": "struct BKCVerify.Document",
          "name": "document",
          "type": "tuple"
        }
      ],
      "stateMutability": "view",
      "type": "function"
    },
    {
      "inputs": [
        {
          "internalType": "string",
          "name": "documentId",
          "type": "string"
        }
      ],
      "name": "getDocumentSignatures",
      "outputs": [
        {
          "components": [
            {
              "internalType": "address",
              "name": "signer",
              "type": "address"
            },
            {
              "internalType": "uint256",
              "name": "timestamp",
              "type": "uint256"
            },
            {
              "internalType": "string",
              "name": "signatureHash",
              "type": "string"
            },
            {
              "internalType": "bool",
              "name": "valid",
              "type": "bool"
            }
          ],
          "internalType": "struct BKCVerify.Signature[]",
          "name": "signatures",
          "type": "tuple[]"
        }
      ],
      "stateMutability": "view",
      "type": "function"
    },
    {
      "inputs": [
        {
          "internalType": "string",
          "name": "userId",
          "type": "string"
        }
      ],
      "name": "getIdentityVerification",
      "outputs": [
        {
          "components": [
            {
              "internalType": "string",
              "name": "userId",
              "type": "string"
            },
            {
              "internalType": "string",
              "name": "identityHash",
              "type": "string"
            },
            {
              "internalType": "uint256",
              "name": "timestamp",
              "type": "uint256"
            },
            {
              "internalType": "bool",
              "name": "verified",
              "type": "bool"
            },
            {
              "internalType": "address",
              "name": "verifier",
              "type": "address"
            },
            {
              "internalType": "string",
              "name": "certificateHash",
              "type": "string"
            }
          ],
          "internalType": "struct BKCVerify.IdentityVerification",
          "name": "verification",
          "type": "tuple"
        }
      ],
      "stateMutability": "view",
      "type": "function"
    },
    {
      "inputs": [
        {
          "internalType": "address",
          "name": "walletAddress",
          "type": "address"
        }
      ],
      "name": "getUser",
      "outputs": [
        {
          "components": [
            {
              "internalType": "string",
              "name": "userId",
              "type": "string"
            },
            {
              "internalType": "address",
              "name": "walletAddress",
              "type": "address"
            },
            {
              "internalType": "bool",
              "name": "identityVerified",
              "type": "bool"
            },
            {
              "internalType": "uint256",
              "name": "verificationTimestamp",
              "type": "uint256"
            },
            {
              "internalType": "string",
              "name": "identityHash",
              "type": "string"
            },
            {
              "internalType": "uint256",
              "name": "documentCount",
              "type": "uint256"
            },
            {
              "internalType": "uint256",
              "name": "signatureCount",
              "type": "uint256"
            }
          ],
          "internalType": "struct BKCVerify.User",
          "name": "user",
          "type": "tuple"
        }
      ],
      "stateMutability": "view",
      "type": "function"
    },
    {
      "inputs": [
        {
          "internalType": "string",
          "name": "",
          "type": "string"
        }
      ],
      "name": "identityVerifications",
      "outputs": [
        {
          "internalType": "string",
          "name": "userId",
          "type": "string"
        },
        {
          "internalType": "string",
          "name": "identityHash",
          "type": "string"
        },
        {
          "internalType": "uint256",
          "name": "timestamp",
          "type": "uint256"
        },
        {
          "internalType": "bool",
          "name": "verified",
          "type": "bool"
        },
        {
          "internalType": "address",
          "name": "verifier",
          "type": "address"
        },
        {
          "internalType": "string",
          "name": "certificateHash",
          "type": "string"
        }
      ],
      "stateMutability": "view",
      "type": "function"
    },
    {
      "inputs": [
        {
          "internalType": "address",
          "name": "verifier",
          "type": "address"
        }
      ],
      "name": "isAuthorizedVerifier",
      "outputs": [
        {
          "internalType": "bool",
          "name": "",
          "type": "bool"
        }
      ],
      "stateMutability": "view",
      "type": "function"
    },
    {
      "inputs": [],
      "name": "owner",
      "outputs": [
        {
          "internalType": "address",
          "name": "",
          "type": "address"
        }
      ],
      "stateMutability": "view",
      "type": "function"
    },
    {
      "inputs": [
        {
          "internalType": "string",
          "name": "userId",
          "type": "string"
        },
        {
          "internalType": "address",
          "name": "walletAddress",
          "type": "address"
        }
      ],
      "name": "registerUser",
      "outputs": [],
      "stateMutability": "nonpayable",
      "type": "function"
    },
    {
      "inputs": [],
      "name": "renounceOwnership",
      "outputs": [],
      "stateMutability": "nonpayable",
      "type": "function"
    },
    {
      "inputs": [
        {
          "internalType": "address",
          "name": "verifier",
          "type": "address"
        },
        {
          "internalType": "bool",
          "name": "authorized",
          "type": "bool"
        }
      ],
      "name": "setVerifierAuthorization",
      "outputs": [],
      "stateMutability": "nonpayable",
      "type": "function"
    },
    {
      "inputs": [
        {
          "internalType": "string",
          "name": "documentId",
          "type": "string"
        },
        {
          "internalType": "string",
          "name": "signatureHash",
          "type": "string"
        }
      ],
      "name": "signDocument",
      "outputs": [],
      "stateMutability": "nonpayable",
      "type": "function"
    },
    {
      "inputs": [
        {
          "internalType": "string",
          "name": "userId",
          "type": "string"
        },
        {
          "internalType": "string",
          "name": "identityHash",
          "type": "string"
        },
        {
          "internalType": "address",
          "name": "walletAddress",
          "type": "address"
        }
      ],
      "name": "submitIdentityVerification",
      "outputs": [],
      "stateMutability": "nonpayable",
      "type": "function"
    },
    {
      "inputs": [
        {
          "internalType": "address",
          "name": "newOwner",
          "type": "address"
        }
      ],
      "name": "transferOwnership",
      "outputs": [],
      "stateMutability": "nonpayable",
      "type": "function"
    },
    {
      "inputs": [
        {
          "internalType": "string",
          "name": "",
          "type": "string"
        }
      ],
      "name": "usedDocumentHashes",
      "outputs": [
        {
          "internalType": "bool",
          "name": "",
          "type": "bool"
        }
      ],
      "stateMutability": "view",
      "type": "function"
    },
    {
      "inputs": [
        {
          "internalType": "string",
          "name": "",
          "type": "string"
        }
      ],
      "name": "usedIdentityHashes",
      "outputs": [
        {
          "internalType": "bool",
          "name": "",
          "type": "bool"
        }
      ],
      "stateMutability": "view",
      "type": "function"
    },
    {
      "inputs": [
        {
          "internalType": "address",
          "name": "",
          "type": "address"
        }
      ],
      "name": "users",
      "outputs": [
        {
          "internalType": "string",
          "name": "userId",
          "type": "string"
        },
        {
          "internalType": "address",
          "name": "walletAddress",
          "type": "address"
        },
        {
          "internalType": "bool",
          "name": "identityVerified",
          "type": "bool"
        },
        {
          "internalType": "uint256",
          "name": "verificationTimestamp",
          "type": "uint256"
        },
        {
          "internalType": "string",
          "name": "identityHash",
          "type": "string"
        },
        {
          "internalType": "uint256",
          "name": "documentCount",
          "type": "uint256"
        },
        {
          "internalType": "uint256",
          "name": "signatureCount",
          "type": "uint256"
        }
      ],
      "stateMutability": "view",
      "type": "function"
    }
  ],
  "bytecode": "0x608060405234801561001057600080fd5b5061001a3361003e565b6001808055336000908152600960205260409020805460ff1916909117905561008e565b600080546001600160a01b038381166001600160a01b0319831681178455604051919092169283917f8be0079c531659141344cd1fd0a4f28419497f9722a3daafe3b4186f6b6457e09190a35050565b6126fa8061009d6000396000f3fe608060405234801561001057600080fd5b50600436106101375760003560e01c80638d58bf02116100b8578063a89dd9d71161007c578063a89dd9d7146102f8578063b10c3b4014610318578063b3dd697b14610346578063dfe6b5d61461036c578063f2fde38b1461038b578063fab97aac1461039e57600080fd5b80638d58bf021461026e5780638da5cb5b1461028157806390c058451461029c5780639a891716146102af578063a87430ba146102d257600080fd5b80636cacbf30116100ff5780636cacbf30146101ee5780636f77926b14610201578063715018a6146102215780637ccb6a64146102295780637e6c31fd1461024957600080fd5b80630b40a0ac1461013c5780630dd78e54146101655780630e54b872146101a357806314267415146101b857806341e4422f146101db575b600080fd5b61014f61014a366004611e53565b6103b1565b60405161015c9190611ee0565b60405180910390f35b610193610173366004611e53565b8051602081830181018051600a8252928201919093012091525460ff1681565b604051901515815260200161015c565b6101b66101b1366004611f85565b61060c565b005b6101cb6101c6366004611fd3565b6107dc565b60405161015c9493929190612018565b6101b66101e9366004612052565b6108ca565b6101936101fc3660046120bf565b610b1a565b61021461020f3660046120bf565b610b54565b60405161015c91906120e1565b6101b6610d33565b61023c610237366004611e53565b610d47565b60405161015c9190612164565b61025c610257366004611e53565b610f29565b60405161015c969594939291906121e7565b6101b661027c36600461224b565b611111565b6000546040516001600160a01b03909116815260200161015c565b6101b66102aa3660046122af565b61150d565b6101936102bd3660046120bf565b60096020526000908152604090205460ff1681565b6102e56102e03660046120bf565b6117f7565b60405161015c9796959493929190612323565b61030b610306366004611e53565b611953565b60405161015c919061237d565b610193610326366004611e53565b8051602081830181018051600b8252928201919093012091525460ff1681565b610359610354366004611e53565b611a94565b60405161015c9796959493929190612416565b600080806040805193845260208401929092529082015260600161015c565b6101b66103993660046120bf565b611bfa565b6101b66103ac36600461246f565b611c73565b6103f56040518060c0016040528060608152602001606081526020016000815260200160001515815260200160006001600160a01b03168152602001606081525090565b60058260405161040591906124ab565b90815260200160405180910390206040518060c001604052908160008201805461042e906124c7565b80601f016020809104026020016040519081016040528092919081815260200182805461045a906124c7565b80156104a75780601f1061047c576101008083540402835291602001916104a7565b820191906000526020600020905b81548152906001019060200180831161048a57829003601f168201915b505050505081526020016001820180546104c0906124c7565b80601f01602080910402602001604051908101604052809291908181526020018280546104ec906124c7565b80156105395780601f1061050e57610100808354040283529160200191610539565b820191906000526020600020905b81548152906001019060200180831161051c57829003601f168201915b505050918352505060028201546020820152600382015460ff81161515604083015261010090046001600160a01b03166060820152600482018054608090920191610583906124c7565b80601f01602080910402602001604051908101604052809291908181526020018280546105af906124c7565b80156105fc5780601f106105d1576101008083540402835291602001916105fc565b820191906000526020600020905b8154815290600101906020018083116105df57829003601f168201915b5050505050815250509050919050565b6001600160a01b0381166000908152600860205260409020805461062f906124c7565b1590506106795760405162461bcd60e51b81526020600482015260136024820152725573657220616c72656164792065786973747360681b60448201526064015b60405180910390fd5b60008251116106bc5760405162461bcd60e51b815260206004820152600f60248201526e125b9d985b1a59081d5cd95c881251608a1b6044820152606401610670565b6040805160e0810182528381526001600160a01b038316602080830182905260008385018190526060840181905284518083018652818152608085015260a0840181905260c084018190529182526008905291909120815181906107209082612550565b50602082015160018201805460408501511515600160a01b026001600160a81b03199091166001600160a01b039093169290921791909117905560608201516002820155608082015160038201906107789082612550565b5060a0820151816004015560c08201518160050155905050806001600160a01b0316826040516107a891906124ab565b604051908190038120907f7f605d0ff47d2a070e456b69ce2a36041788910b64443c7f4c6d307993cade2c90600090a35050565b8151602081840181018051600782529282019185019190912091905280548290811061080757600080fd5b60009182526020909120600490910201805460018201546002830180546001600160a01b0390931695509093509061083e906124c7565b80601f016020809104026020016040519081016040528092919081815260200182805461086a906124c7565b80156108b75780601f1061088c576101008083540402835291602001916108b7565b820191906000526020600020905b81548152906001019060200180831161089a57829003601f168201915b5050506003909301549192505060ff1684565b600b826040516108da91906124ab565b9081526040519081900360200190205460ff161561093a5760405162461bcd60e51b815260206004820152601a60248201527f446f63756d656e74206861736820616c726561647920757365640000000000006044820152606401610670565b6000811161099d5760405162461bcd60e51b815260206004820152602a60248201527f5265717569726564207369676e617475726573206d75737420626520677265616044820152690746572207468616e20360b41b6064820152608401610670565b6001600b836040516109af91906124ab565b9081526040805160209281900383018120805460ff19169415159490941790935560e083018152858352908201849052428282015233606083015260006080830181905260a083015260c0820183905251600690610a0e9086906124ab565b90815260405190819003602001902081518190610a2b9082612550565b5060208201516001820190610a409082612550565b506040828101516002830155606083015160038301805460808601511515600160a01b026001600160a81b03199091166001600160a01b039093169290921791909117905560a083015160048084019190915560c0909301516005909201919091553360009081526008602052908120909101805491610abf83612610565b90915550506040513390610ad49085906124ab565b60405180910390207f895002588ec1007f2de5443b4b99a08f8b55bb3a8d16dd61dd20cb4e166b8d7c8442604051610b0d929190612637565b60405180910390a3505050565b6001600160a01b03811660009081526009602052604081205460ff1680610b4e57506000546001600160a01b038381169116145b92915050565b610b9f6040518060e001604052806060815260200160006001600160a01b03168152602001600015158152602001600081526020016060815260200160008152602001600081525090565b6001600160a01b03821660009081526008602052604090819020815160e08101909252805482908290610bd1906124c7565b80601f0160208091040260200160405190810160405280929190818152602001828054610bfd906124c7565b8015610c4a5780601f10610c1f57610100808354040283529160200191610c4a565b820191906000526020600020905b815481529060010190602001808311610c2d57829003601f168201915b505050918352505060018201546001600160a01b0381166020830152600160a01b900460ff161515604082015260028201546060820152600382018054608090920191610c96906124c7565b80601f0160208091040260200160405190810160405280929190818152602001828054610cc2906124c7565b8015610d0f5780601f10610ce457610100808354040283529160200191610d0f565b820191906000526020600020905b815481529060010190602001808311610cf257829003601f168201915b50505050508152602001600482015481526020016005820154815250509050919050565b610d3b611cda565b610d456000611d34565b565b610d926040518060e0016040528060608152602001606081526020016000815260200160006001600160a01b0316815260200160001515815260200160008152602001600081525090565b600682604051610da291906124ab565b90815260200160405180910390206040518060e0016040529081600082018054610dcb906124c7565b80601f0160208091040260200160405190810160405280929190818152602001828054610df7906124c7565b8015610e445780601f10610e1957610100808354040283529160200191610e44565b820191906000526020600020905b815481529060010190602001808311610e2757829003601f168201915b50505050508152602001600182018054610e5d906124c7565b80601f0160208091040260200160405190810160405280929190818152602001828054610e89906124c7565b8015610ed65780601f10610eab57610100808354040283529160200191610ed6565b820191906000526020600020905b815481529060010190602001808311610eb957829003601f168201915b50505091835250506002820154602082015260038201546001600160a01b0381166040830152600160a01b900460ff16151560608201526004820154608082015260059091015460a09091015292915050565b8051602081830181018051600582529282019190930120915280548190610f4f906124c7565b80601f0160208091040260200160405190810160405280929190818152602001828054610f7b906124c7565b8015610fc85780601f10610f9d57610100808354040283529160200191610fc8565b820191906000526020600020905b815481529060010190602001808311610fab57829003601f168201915b505050505090806001018054610fdd906124c7565b80601f0160208091040260200160405190810160405280929190818152602001828054611009906124c7565b80156110565780601f1061102b57610100808354040283529160200191611056565b820191906000526020600020905b81548152906001019060200180831161103957829003601f168201915b50505050600283015460038401546004850180549495929460ff831694506101009092046001600160a01b0316929161108e906124c7565b80601f01602080910402602001604051908101604052809291908181526020018280546110ba906124c7565b80156111075780601f106110dc57610100808354040283529160200191611107565b820191906000526020600020905b8154815290600101906020018083116110ea57829003601f168201915b5050505050905086565b8160068160405161112291906124ab565b9081526020016040518091039020600201546000036111835760405162461bcd60e51b815260206004820152601760248201527f446f63756d656e7420646f6573206e6f742065786973740000000000000000006044820152606401610670565b33600090815260086020526040902060010154600160a01b900460ff166111e45760405162461bcd60e51b81526020600482015260156024820152741259195b9d1a5d1e481b9bdd081d995c9a599a5959605a1b6044820152606401610670565b6006836040516111f491906124ab565b9081526040519081900360200190206003015460ff600160a01b909104161561125f5760405162461bcd60e51b815260206004820152601d60248201527f446f63756d656e7420616c72656164792066756c6c79207369676e65640000006044820152606401610670565b600060078460405161127191906124ab565b9081526020016040518091039020905060005b815481101561132257336001600160a01b03168282815481106112a9576112a9612659565b60009182526020909120600490910201546001600160a01b0316036113105760405162461bcd60e51b815260206004820152601c60248201527f416c7265616479207369676e6564207468697320646f63756d656e74000000006044820152606401610670565b8061131a81612610565b915050611284565b50604080516080810182523381524260208201528082018590526001606082015290516007906113539087906124ab565b9081526040805160209281900383019020805460018082018355600092835291849020855160049092020180546001600160a01b0319166001600160a01b03909216919091178155928401519083015582015182919060028201906113b89082612550565b50606091909101516003909101805460ff19169115159190911790556040516006906113e59087906124ab565b908152604051908190036020019020600401805490600061140583612610565b909155505033600090815260086020526040812060050180549161142883612610565b919050555060068560405161143d91906124ab565b90815260200160405180910390206005015460068660405161145f91906124ab565b908152602001604051809103902060040154106114b557600160068660405161148891906124ab565b9081526040519081900360200190206003018054911515600160a01b0260ff60a01b199092169190911790555b60405133906114c59087906124ab565b60405180910390207f81ffdb71923cc53a03997e3f588d296b6c1170e63dad2bb2b157649f7c63fbc886426040516114fe929190612637565b60405180910390a35050505050565b3360009081526009602052604090205460ff168061153557506000546001600160a01b031633145b6115815760405162461bcd60e51b815260206004820152601760248201527f4e6f7420617574686f72697a65642076657269666965720000000000000000006044820152606401610670565b600a8260405161159191906124ab565b9081526040519081900360200190205460ff16156115f15760405162461bcd60e51b815260206004820152601a60248201527f4964656e74697479206861736820616c726561647920757365640000000000006044820152606401610670565b6001600160a01b03811660009081526008602052604090208054611614906124c7565b905060000361165b5760405162461bcd60e51b8152602060048201526013602482015272155cd95c88191bd95cc81b9bdd08195e1a5cdd606a1b6044820152606401610670565b6001600a8360405161166d91906124ab565b9081526040805160209281900383018120805460ff19169415159490941790935560c08301815285835290820184905242908201526001606082015233608082015260a081016116bd8585611d84565b8152506005846040516116d091906124ab565b908152604051908190036020019020815181906116ed9082612550565b50602082015160018201906117029082612550565b5060408201516002820155606082015160038201805460808501516001600160a01b031661010002610100600160a81b0319931515939093166001600160a81b03199091161791909117905560a082015160048201906117629082612550565b5050506001600160a01b038116600090815260086020526040902060018101805460ff60a01b1916600160a01b1790554260028201556003016117a58382612550565b50806001600160a01b0316836040516117be91906124ab565b60405180910390207f2c4c77dfdff8e0e1a77fd30e9c70f58ece73d8f21a856b89b0fb91a420752da38442604051610b0d929190612637565b600860205260009081526040902080548190611812906124c7565b80601f016020809104026020016040519081016040528092919081815260200182805461183e906124c7565b801561188b5780601f106118605761010080835404028352916020019161188b565b820191906000526020600020905b81548152906001019060200180831161186e57829003601f168201915b505050506001830154600284015460038501805494956001600160a01b03841695600160a01b90940460ff16945091926118c4906124c7565b80601f01602080910402602001604051908101604052809291908181526020018280546118f0906124c7565b801561193d5780601f106119125761010080835404028352916020019161193d565b820191906000526020600020905b81548152906001019060200180831161192057829003601f168201915b5050505050908060040154908060050154905087565b606060078260405161196591906124ab565b9081526020016040518091039020805480602002602001604051908101604052809291908181526020016000905b82821015611a89576000848152602090819020604080516080810182526004860290920180546001600160a01b03168352600181015493830193909352600283018054929392918401916119e6906124c7565b80601f0160208091040260200160405190810160405280929190818152602001828054611a12906124c7565b8015611a5f5780601f10611a3457610100808354040283529160200191611a5f565b820191906000526020600020905b815481529060010190602001808311611a4257829003601f168201915b50505091835250506003919091015460ff1615156020918201529082526001929092019101611993565b505050509050919050565b8051602081830181018051600682529282019190930120915280548190611aba906124c7565b80601f0160208091040260200160405190810160405280929190818152602001828054611ae6906124c7565b8015611b335780601f10611b0857610100808354040283529160200191611b33565b820191906000526020600020905b815481529060010190602001808311611b1657829003601f168201915b505050505090806001018054611b48906124c7565b80601f0160208091040260200160405190810160405280929190818152602001828054611b74906124c7565b8015611bc15780601f10611b9657610100808354040283529160200191611bc1565b820191906000526020600020905b815481529060010190602001808311611ba457829003601f168201915b50505050600283015460038401546004850154600590950154939491936001600160a01b0382169350600160a01b90910460ff16919087565b611c02611cda565b6001600160a01b038116611c675760405162461bcd60e51b815260206004820152602660248201527f4f776e61626c653a206e6577206f776e657220697320746865207a65726f206160448201526564647265737360d01b6064820152608401610670565b611c7081611d34565b50565b611c7b611cda565b6001600160a01b038216600081815260096020908152604091829020805460ff191685151590811790915591519182527f549bea741606fea6131feb992ab8021bef3bb5dfc19f6d30184944614a875459910160405180910390a25050565b6000546001600160a01b03163314610d455760405162461bcd60e51b815260206004820181905260248201527f4f776e61626c653a2063616c6c6572206973206e6f7420746865206f776e65726044820152606401610670565b600080546001600160a01b038381166001600160a01b0319831681178455604051919092169283917f8be0079c531659141344cd1fd0a4f28419497f9722a3daafe3b4186f6b6457e09190a35050565b60608282604051602001611d9992919061266f565b604051602081830303815290604052905092915050565b634e487b7160e01b600052604160045260246000fd5b600082601f830112611dd757600080fd5b813567ffffffffffffffff80821115611df257611df2611db0565b604051601f8301601f19908116603f01168101908282118183101715611e1a57611e1a611db0565b81604052838152866020858801011115611e3357600080fd5b836020870160208301376000602085830101528094505050505092915050565b600060208284031215611e6557600080fd5b813567ffffffffffffffff811115611e7c57600080fd5b611e8884828501611dc6565b949350505050565b60005b83811015611eab578181015183820152602001611e93565b50506000910152565b60008151808452611ecc816020860160208601611e90565b601f01601f19169290920160200192915050565b602081526000825160c06020840152611efc60e0840182611eb4565b90506020840151601f1980858403016040860152611f1a8383611eb4565b92506040860151606086015260608601511515608086015260018060a01b0360808701511660a086015260a08601519150808584030160c086015250611f608282611eb4565b95945050505050565b80356001600160a01b0381168114611f8057600080fd5b919050565b60008060408385031215611f9857600080fd5b823567ffffffffffffffff811115611faf57600080fd5b611fbb85828601611dc6565b925050611fca60208401611f69565b90509250929050565b60008060408385031215611fe657600080fd5b823567ffffffffffffffff811115611ffd57600080fd5b61200985828601611dc6565b95602094909401359450505050565b60018060a01b038516815283602082015260806040820152600061203f6080830185611eb4565b9050821515606083015295945050505050565b60008060006060848603121561206757600080fd5b833567ffffffffffffffff8082111561207f57600080fd5b61208b87838801611dc6565b945060208601359150808211156120a157600080fd5b506120ae86828701611dc6565b925050604084013590509250925092565b6000602082840312156120d157600080fd5b6120da82611f69565b9392505050565b602081526000825160e060208401526120fe610100840182611eb4565b905060018060a01b036020850151166040840152604084015115156060840152606084015160808401526080840151601f198483030160a08501526121438282611eb4565b91505060a084015160c084015260c084015160e08401528091505092915050565b602081526000825160e06020840152612181610100840182611eb4565b90506020840151601f1984830301604085015261219e8282611eb4565b9150506040840151606084015260018060a01b0360608501511660808401526080840151151560a084015260a084015160c084015260c084015160e08401528091505092915050565b60c0815260006121fa60c0830189611eb4565b828103602084015261220c8189611eb4565b6040840188905286151560608501526001600160a01b038616608085015283810360a0850152905061223e8185611eb4565b9998505050505050505050565b6000806040838503121561225e57600080fd5b823567ffffffffffffffff8082111561227657600080fd5b61228286838701611dc6565b9350602085013591508082111561229857600080fd5b506122a585828601611dc6565b9150509250929050565b6000806000606084860312156122c457600080fd5b833567ffffffffffffffff808211156122dc57600080fd5b6122e887838801611dc6565b945060208601359150808211156122fe57600080fd5b5061230b86828701611dc6565b92505061231a60408501611f69565b90509250925092565b60e08152600061233660e083018a611eb4565b6001600160a01b038916602084015287151560408401526060830187905282810360808401526123668187611eb4565b60a0840195909552505060c0015295945050505050565b60006020808301818452808551808352604092508286019150828160051b87010184880160005b8381101561240857888303603f19018552815180516001600160a01b031684528781015188850152868101516080888601819052906123e582870182611eb4565b6060938401511515969093019590955250948701949250908601906001016123a4565b509098975050505050505050565b60e08152600061242960e083018a611eb4565b828103602084015261243b818a611eb4565b604084019890985250506001600160a01b03949094166060850152911515608084015260a083015260c09091015292915050565b6000806040838503121561248257600080fd5b61248b83611f69565b9150602083013580151581146124a057600080fd5b809150509250929050565b600082516124bd818460208701611e90565b9190910192915050565b600181811c908216806124db57607f821691505b6020821081036124fb57634e487b7160e01b600052602260045260246000fd5b50919050565b601f82111561254b57600081815260208120601f850160051c810160208610156125285750805b601f850160051c820191505b8181101561254757828155600101612534565b5050505b505050565b815167ffffffffffffffff81111561256a5761256a611db0565b61257e8161257884546124c7565b84612501565b602080601f8311600181146125b3576000841561259b5750858301515b600019600386901b1c1916600185901b178555612547565b600085815260208120601f198616915b828110156125e2578886015182559484019460019091019084016125c3565b50858210156126005787850151600019600388901b60f8161c191681555b5050505050600190811b01905550565b60006001820161263057634e487b7160e01b600052601160045260246000fd5b5060010190565b60408152600061264a6040830185611eb4565b90508260208301529392505050565b634e487b7160e01b600052603260045260246000fd5b60008351612681818460208801611e90565b605f60f81b908301908152835161269f816001840160208801611e90565b6b5f636572746966696361746560a01b60019290910191820152600d0194935050505056fea2646970667358221220813c3661a473a6b719f3190cb75f752816394e133863b02b40b57e04dbc78f9f64736f6c63430008130033",
  "linkReferences": {},
  "deployedLinkReferences": {}
}